:03000000020D9757
:0C0D9700787FE4F6D8FD75813D020DDE8A
:1010370053636F72653A00486967685F53636F72FD
:0E104700653A002020002A002A2A00202A00F4
:100E6D00C101C100022B0000022700000225000075
:100E7D00023400C0023600800238000F023C000030
:100E8D0002310000022900000221FFFF0223FFFFB3
:0C0E9D00022D0000023A0000022F000AA3
:100EE500E4F5A0C282C280C2817F38FE1210721260
:100EF5000F297F067E00121072120F297F0C7E00CB
:100F0500121072120F297F017E00121072120F2922
:070F15007F807E00021072D4
:100F1C00E5352539FFE5343538FE1210727F047E35
:010F2C0000C4
:100F2D00E4FDFCC3ED9FEC9E5015E4FBFA0BBB00FA
:0F0F3D00010ABA01F8BB7EF50DBD00010C80E47E
:010F4C002282
:060CEB007B007A00793362
:100CF1008E098F0A8B0B8A0C890D7C277D10120CB3
:100D010060EF2430120C2CAE09AF0A7C277D101243
:100D11000C607E037FE8CFCDCFCECCCE120C60EF3E
:100D21002430AB0BAA0CA90D900001120C3EAE09A8
:100D3100AF0A7C037DE8120C607E007F64CFCDCFCB
:100D4100CECCCE120C60EF2430AB0BAA0CA90D90C7
:100D51000002120C3EAE09AF0A7C007D64120C60E9
:100D61007E007F0ACFCDCFCECCCE120C60EF2430E7
:100D7100AB0BAA0CA90D900003120C3EAE09AF0AF1
:100D81007C007D0A120C60ED2430AB0BAA0CA90D7E
:060D9100900004020C3E7C
:10107200C280C281D2828FA07F0A7E00120F2DC24F
:021082008222C8
:10108400D280C281D2828FA07F0A7E00120F2DC22D
:021094008222B6
:060FA5007B007A007933A5
:100FAB008B098A0A890BAB09AA0AA90B120C1360CD
:100FBB0013050BE50B7002050A14F9120C13FF1243
:050FCB00108480E22209
:10109600758920758DF3759850D28ED2AFD2AC2259
:0810C0008F993001FDC20122ED
:100FD0008B0E8A0F8910AB0EAA0FA910120C13608A
:100FE000130510E5107002050F14F9120C13FF120F
:050FF00010C080E222A8
:0910B600E4FF3000FDC200AF9917
:0110BF00220E
:030023000210A622
:1010A600309905C299D20132309804C298D20032E2
:10105500D3E522940DE52164809480500CE5249419
:0D1065000DE523648094804002D322C32255
:100EAA00752D00E5305408F52E7E00E530540178A2
:100EBA0003C333CE33CED8F9F53B8E3AE52FA2E7FA
:100ECA0013F52FE53013F530E52D653AFEE52E656D
:0B0EDA003B2530F530EE352FF52F22C0
:10101700AE3CAF3D7C007D02120CB5ED4C7008056F
:101027003DE53D7002053C7531007532010208004F
:100FF500AE3CAF3D7C007D02120CB5ED64014C703A
:1010050008E53D153D7002153C753100753201024C
:021015000800D1
:100F4D00E52845276025AE3CAF3D7C007D02120CA7
:100F5D00B5ED4C7008053DE53D7002053C75310061
:0C0F6D007532010526E5267002052522DC
:100F7900120EAAAE2FAF307C007D03120CB58C2760
:100F89008D28AE2FAF307C007D02120CB58C258DDB
:0C0F99002675380075390F8C3C8D3D2208
:100800001210555077C3E52A952CE529952B400603
:1008100085292B852A2C7F017E00120F267F8012CE
:100820000F267BFF7A107937120FAB120F29AF2AF0
:10083000AE29120CEB120FA5120F297FC0120F2642
:100840007BFF7A10793E120FAB120F29AF2CAE2B23
:10085000120CEB120FA57FB87E0B120F2D7F017EBD
:100860000012107274FFF521F522F523F524753876
:100870000075390FE4F529F52A020ADFE539F4702D
:1008800003E538F470030209D0E52845277015E523
:100890003D453C700FE52265397004E521653870EF
:1008A000030209D0E52845277017E53D6401453C62
:1008B000700FE52465397004E5236538700302097B
:1008C000D0E528640145277023AE25AF26FC7D02C4
:1008D000120CB5ED4C7015E53D453C700FE52265F9
:1008E000397004E521653870030209D0E5286401F8
:1008F0004527702EAE25AF26FC7D02120CB5ED64A7
:10090000014C701EE52265397004E52165387003DD
:100910000209D0E52465397004E5236538700302C7
:1009200009D0E52864024527702FAE25AF26FC7D4F
:1009300004120CB5ED4C6006ED64034C701BE5220F
:1009400065397004E521653870030209D0E5246536
:10095000397004E52365386077E52864024527701F
:100960002FAE25AF26FC7D04120CB5ED64014C7052
:100970001FE52465397004E52365386053E53924A3
:1009800001FFE43538FEEF65227003EE652160401B
:10099000E528640245276003020AE2AE25AF26FC83
:1009A0007D04120CB5ED64024C6003020AE2E539E5
:1009B0002401FFE43538FEEF65247003EE65236003
:1009C0000FE52265397004E52165386003020AE20B
:1009D000E5284527701CE53D453C700B0522E522C6
:1009E000700D0521020ADF0524E5247002052302AB
:1009F0000ADFE528640145277055AE25AF26FC7D4A
:100A000002120CB5ED4C7014E53D453C7058740273
:100A10002522F522E43521F521020ADF0522E5220F
:100A2000700205210524E52470020523D3E52295F3
:100A300024E5236480F8E52164809840098521231A
:100A4000852224020ADF852321852422020ADFAEC3
:100A500025AF267C007D04120CB5ED4C700A0522F2
:100A6000E522700205218057ED64014C7021E539C3
:100A7000B5220FE538B5210A0522E52270020521CD
:100A8000803D74022522F522E43521F5218030EDE8
:100A900064024C7037E539B5241AE538B52315746E
:100AA000022522F522E43521F5210524E5247002F2
:100AB0000523802B74022522F522E43521F52174CB
:100AC000022524F524E43523F5238013740225221E
:100AD000F522E43521F5210524E5247002052302E1
:100AE0000F79E5352539CFE5343538CF2401CF34BA
:100AF00000120F257BFF7A10794A120FAB120F29D3
:100B0000E5372539CFE5363538CF2401CF3400120B
:100B10000F257BFF7A10794A120FABE52845277025
:100B200018E53D453C7009E5352539FFE534804E33
:100B3000E5372539FFE5368045E52864014527700E
:100B400049AE25AF26FC7D02120CB5ED4C7019E5BF
:100B50003D453C700AE5352539FFE534020BAFE52C
:100B6000372539FFE5368047120F1C7BFF7A107955
:100B70004D120FAB120F29E5372539FFE536120F5D
:100B8000237BFF7A10794D020C0CAE25AF267C003A
:100B90007D04120CB5ED4C7022120F1C7BFF7A10F5
:100BA000794D120FAB120F29E5372539FFE53612C3
:100BB0000F237BFF7A10794F020C0CAE25AF267CF9
:100BC000007D04120CB5ED64014C7021120F1C7BEA
:100BD000FF7A107952120FAB120F29E5372539FF32
:100BE000E536120F237BFF7A10794F801F120F1CFE
:100BF0007BFF7A10794F120FAB120F29E537253999
:100C0000FFE536120F237BFF7A107952120FAB12D9
:030C10000F292287
:100E2300120EE51210967508201208007FE87E0363
:100E3300120F2D052AE52A70020529E539153970A7
:100E43000215383000051210B68F08E508249F609C
:100E53000C24EF600D04700D1210178008120FF5AB
:0A0E63008003120F4D120F2980BC0E
:100DA300020E23E493A3F8E493A34003F68001F235
:100DB30008DFF48029E493A3F85407240CC8C33351
:100DC300C4540F4420C8834004F456800146F6DF20
:100DD300E4800B0102040810204080900E6DE47E35
:100DE300019360BCA3FF543F30E509541FFEE49315
:100DF300A360010ECF54C025E060A840B8E493A3DC
:100E0300FAE493A3F8E493A3C8C582C8CAC583CA06
:100E1300F0A3C8C582C8CAC583CADFE9DEE780BEBE
:010EA9000048
:100C1300BB010689828A83E0225002E722BBFE02DF
:090C2300E32289828A83E4932212
:100C2C00BB010689828A83F0225002F722BBFE01A7
:020C3C00F322A1
:100C3E00F8BB010DE58229F582E5833AF583E8F0EC
:100C4E00225006E92582C8F622BBFE05E92582C898
:020C5E00F22280
:100C6000BC000BBE0029EF8DF084FFADF022E4CC78
:100C7000F875F008EF2FFFEE33FEEC33FCEE9DEC41
:100C8000984005FCEE9DFE0FD5F0E9E4CEFD22ED87
:100C9000F8F5F0EE8420D21CFEADF075F008EF2FD1
:100CA000FFED33FD4007985006D5F0F222C398FDC2
:050CB0000FD5F0EA225F
:100CB500C2D5EC30E709B2D5E4C39DFDE49CFCEE5A
:100CC50030E715B2D5E4C39FFFE49EFE120C60C366
:100CD500E49DFDE49CFC8003120C6030D507C3E461
:060CE5009FFFE49EFE22C9
:00000001FF
